:100000000C9434000C9446000C9446000C9446006A
:100010000C9446000C9446000C9446000C94460048
:100020000C9446000C9446000C9446000C94460038
:100030000C9446000C9446000C9446000C94460028
:100040000C9446000C9446000C9446000C94460018
:100050000C9446000C9446000C9446000C94460008
:100060000C9479000C94460011241FBECFEFD8E009
:10007000DEBFCDBF21E0A0E0B1E001C01D92A13004
:10008000B207E1F70E9458000C94AE000C940000F7
:100090007894ECEBF0E084E080838081806480835E
:1000A0008081816080831092B8001092B900089519
:1000B00080E284B983E4809300010E94480095B1F6
:1000C00080E2982795B92FEF33ED90E3215030402F
:1000D0009040E1F700C0000095B1892785B92FEF66
:1000E00033ED80E3215030408040E1F700C0000054
:1000F000E6CF1F920F920FB60F9211248F939F930A
:10010000AF93BF93EF93FF93ECEBF0E0908180E22D
:1001100098279083AFE9BFE01197F1F700C0000086
:10012000908189278083809100018093BB0080812A
:10013000806180838FE99FE00197F1F700C00000A4
:10014000808180588083FF91EF91BF91AF919F9103
:100150008F910F900FBE0F901F901895F894FFCFBE
:00000001FF
